:1000000000308A0012280000223084008313000888
:1000100003191128A530F700F70B0C280000800BFE
:100020000A280034840183131F30830507309F00A2
:1000300083160610831206140A30A20004208316C9
:100040000610831206100A30A200042083168610C0
:10005000831286140A30A2000420831686108312AD
:1000600086100A30A200042083160611831206159A
:100070000A30A200042083160611831206110A30EA
:10008000A200042083168611831286150A30A2006E
:10009000042083168611831286110A30A2000420E0
:1000A00083160612831206160A30A2000420831655
:1000B0000612831206120A30A2000420831686124A
:1000C000831286160A30A200042083168612831239
:0C00D00086120A30A200042018286300E9
:02400E00503F21
:00000001FF
;PIC16F628A
